{
  "_format": "hh-sol-artifact-1",
  "contractName": "ToDo",
  "sourceName": "contracts/ToDo.sol",
  "abi": [
    {
      "anonymous": false,
      "inputs": [
        {
          "indexed": true,
          "internalType": "address",
          "name": "user",
          "type": "address"
        },
        {
          "indexed": false,
          "internalType": "uint256",
          "name": "taskId",
          "type": "uint256"
        }
      ],
      "name": "TaskCompleted",
      "type": "event"
    },
    {
      "anonymous": false,
      "inputs": [
        {
          "indexed": true,
          "internalType": "address",
          "name": "user",
          "type": "address"
        },
        {
          "indexed": false,
          "internalType": "uint256",
          "name": "taskId",
          "type": "uint256"
        },
        {
          "indexed": false,
          "internalType": "string",
          "name": "name",
          "type": "string"
        }
      ],
      "name": "TaskCreated",
      "type": "event"
    },
    {
      "anonymous": false,
      "inputs": [
        {
          "indexed": true,
          "internalType": "address",
          "name": "user",
          "type": "address"
        },
        {
          "indexed": false,
          "internalType": "uint256",
          "name": "taskId",
          "type": "uint256"
        }
      ],
      "name": "TaskDeleted",
      "type": "event"
    },
    {
      "anonymous": false,
      "inputs": [
        {
          "indexed": true,
          "internalType": "address",
          "name": "user",
          "type": "address"
        },
        {
          "indexed": false,
          "internalType": "uint256",
          "name": "taskId",
          "type": "uint256"
        },
        {
          "indexed": false,
          "internalType": "string",
          "name": "newName",
          "type": "string"
        }
      ],
      "name": "TaskUpdated",
      "type": "event"
    },
    {
      "inputs": [
        {
          "internalType": "uint256",
          "name": "_taskId",
          "type": "uint256"
        }
      ],
      "name": "completeTask",
      "outputs": [],
      "stateMutability": "nonpayable",
      "type": "function"
    },
    {
      "inputs": [
        {
          "internalType": "string",
          "name": "_name",
          "type": "string"
        }
      ],
      "name": "createTask",
      "outputs": [],
      "stateMutability": "nonpayable",
      "type": "function"
    },
    {
      "inputs": [
        {
          "internalType": "uint256",
          "name": "_taskId",
          "type": "uint256"
        }
      ],
      "name": "deleteTask",
      "outputs": [],
      "stateMutability": "nonpayable",
      "type": "function"
    },
    {
      "inputs": [
        {
          "internalType": "address",
          "name": "_user",
          "type": "address"
        }
      ],
      "name": "getAllTasks",
      "outputs": [
        {
          "components": [
            {
              "internalType": "string",
              "name": "name",
              "type": "string"
            },
            {
              "internalType": "bool",
              "name": "isCompleted",
              "type": "bool"
            },
            {
              "internalType": "uint256",
              "name": "createdAt",
              "type": "uint256"
            }
          ],
          "internalType": "struct ToDo.Task[]",
          "name": "",
          "type": "tuple[]"
        }
      ],
      "stateMutability": "view",
      "type": "function"
    },
    {
      "inputs": [
        {
          "internalType": "address",
          "name": "_user",
          "type": "address"
        },
        {
          "internalType": "uint256",
          "name": "_taskId",
          "type": "uint256"
        }
      ],
      "name": "getTask",
      "outputs": [
        {
          "components": [
            {
              "internalType": "string",
              "name": "name",
              "type": "string"
            },
            {
              "internalType": "bool",
              "name": "isCompleted",
              "type": "bool"
            },
            {
              "internalType": "uint256",
              "name": "createdAt",
              "type": "uint256"
            }
          ],
          "internalType": "struct ToDo.Task",
          "name": "",
          "type": "tuple"
        }
      ],
      "stateMutability": "view",
      "type": "function"
    },
    {
      "inputs": [
        {
          "internalType": "address",
          "name": "_user",
          "type": "address"
        }
      ],
      "name": "getTaskCount",
      "outputs": [
        {
          "internalType": "uint256",
          "name": "",
          "type": "uint256"
        }
      ],
      "stateMutability": "view",
      "type": "function"
    },
    {
      "inputs": [
        {
          "internalType": "uint256",
          "name": "_taskId",
          "type": "uint256"
        },
        {
          "internalType": "string",
          "name": "_newName",
          "type": "string"
        }
      ],
      "name": "updateTaskName",
      "outputs": [],
      "stateMutability": "nonpayable",
      "type": "function"
    }
  ],
  "bytecode": "0x608060405234801561001057600080fd5b506118e4806100206000396000f3fe608060405234801561001057600080fd5b506004361061007d5760003560e01c8063a9330a151161005b578063a9330a15146100ea578063c64ecb8f14610106578063e1e2955814610136578063f1209f8a146101525761007d565b8063111002aa14610082578063560f31921461009e5780639368e3e1146100ba575b600080fd5b61009c60048036038101906100979190610e73565b610182565b005b6100b860048036038101906100b39190610ef2565b6102ef565b005b6100d460048036038101906100cf9190610f7d565b610604565b6040516100e191906110b6565b60405180910390f35b61010460048036038101906100ff91906110d8565b6107b7565b005b610120600480360381019061011b9190611134565b6108fd565b60405161012d9190611170565b60405180910390f35b610150600480360381019061014b9190610ef2565b610948565b005b61016c60048036038101906101679190611134565b610b45565b604051610179919061129d565b60405180910390f35b600060405180606001604052808381526020016000151581526020014281525090506000803373ffffffffffffffffffffffffffffffffffffffff1673ffffffffffffffffffffffffffffffffffffffff168152602001908152602001600020819080600181540180825580915050600190039060005260206000209060030201600090919091909150600082015181600001908161022191906114cb565b5060208201518160010160006101000a81548160ff0219169083151502179055506040820151816002015550503373ffffffffffffffffffffffffffffffffffffffff167fa211005f5319202ee7ab6815fc340564635fb1eee9bc5a55aa10048c5b471dc460016000803373ffffffffffffffffffffffffffffffffffffffff1673ffffffffffffffffffffffffffffffffffffffff168152602001908152602001600020805490506102d491906115cc565b846040516102e392919061164a565b60405180910390a25050565b6000803373ffffffffffffffffffffffffffffffffffffffff1673ffffffffffffffffffffffffffffffffffffffff168152602001908152602001600020805490508110610372576040517f08c379a0000000000000000000000000000000000000000000000000000000008152600401610369906116c6565b60405180910390fd5b60016000803373ffffffffffffffffffffffffffffffffffffffff1673ffffffffffffffffffffffffffffffffffffffff168152602001908152602001600020805490506103c091906115cc565b811015610520576000803373ffffffffffffffffffffffffffffffffffffffff1673ffffffffffffffffffffffffffffffffffffffff16815260200190815260200160002060016000803373ffffffffffffffffffffffffffffffffffffffff1673ffffffffffffffffffffffffffffffffffffffff1681526020019081526020016000208054905061045391906115cc565b81548110610464576104636116e6565b5b90600052602060002090600302016000803373ffffffffffffffffffffffffffffffffffffffff1673ffffffffffffffffffffffffffffffffffffffff16815260200190815260200160002082815481106104c2576104c16116e6565b5b9060005260206000209060030201600082018160000190816104e4919061172b565b506001820160009054906101000a900460ff168160010160006101000a81548160ff021916908315150217905550600282015481600201559050505b6000803373ffffffffffffffffffffffffffffffffffffffff1673ffffffffffffffffffffffffffffffffffffffff16815260200190815260200160002080548061056e5761056d611813565b5b6001900381819060005260206000209060030201600080820160006105939190610c99565b6001820160006101000a81549060ff02191690556002820160009055505090553373ffffffffffffffffffffffffffffffffffffffff167fd1bc87501afcaa22b7f6481dac99ed45fbe02321873ca9b55c1f41b9d78b8fb3826040516105f99190611170565b60405180910390a250565b61060c610cd9565b6000808473ffffffffffffffffffffffffffffffffffffffff1673ffffffffffffffffffffffffffffffffffffffff16815260200190815260200160002080549050821061068f576040517f08c379a0000000000000000000000000000000000000000000000000000000008152600401610686906116c6565b60405180910390fd5b6000808473ffffffffffffffffffffffffffffffffffffffff1673ffffffffffffffffffffffffffffffffffffffff16815260200190815260200160002082815481106106df576106de6116e6565b5b9060005260206000209060030201604051806060016040529081600082018054610708906112ee565b80601f0160208091040260200160405190810160405280929190818152602001828054610734906112ee565b80156107815780601f1061075657610100808354040283529160200191610781565b820191906000526020600020905b81548152906001019060200180831161076457829003601f168201915b505050505081526020016001820160009054906101000a900460ff16151515158152602001600282015481525050905092915050565b6000803373ffffffffffffffffffffffffffffffffffffffff1673ffffffffffffffffffffffffffffffffffffffff16815260200190815260200160002080549050821061083a576040517f08c379a0000000000000000000000000000000000000000000000000000000008152600401610831906116c6565b60405180910390fd5b806000803373ffffffffffffffffffffffffffffffffffffffff1673ffffffffffffffffffffffffffffffffffffffff168152602001908152602001600020838154811061088b5761088a6116e6565b5b906000526020600020906003020160000190816108a891906114cb565b503373ffffffffffffffffffffffffffffffffffffffff167f6b453b6adc8ef22128c2019adf1d4aa703ca6edd91f0d692ac03e638bde9327183836040516108f192919061164a565b60405180910390a25050565b60008060008373ffffffffffffffffffffffffffffffffffffffff1673ffffffffffffffffffffffffffffffffffffffff168152602001908152602001600020805490509050919050565b6000803373ffffffffffffffffffffffffffffffffffffffff1673ffffffffffffffffffffffffffffffffffffffff1681526020019081526020016000208054905081106109cb576040517f08c379a00000000000000000000000000000000000000000000000000000000081526004016109c2906116c6565b60405180910390fd5b6000803373ffffffffffffffffffffffffffffffffffffffff1673ffffffffffffffffffffffffffffffffffffffff1681526020019081526020016000208181548110610a1b57610a1a6116e6565b5b906000526020600020906003020160010160009054906101000a900460ff1615610a7a576040517f08c379a0000000000000000000000000000000000000000000000000000000008152600401610a719061188e565b60405180910390fd5b60016000803373ffffffffffffffffffffffffffffffffffffffff1673ffffffffffffffffffffffffffffffffffffffff1681526020019081526020016000208281548110610acc57610acb6116e6565b5b906000526020600020906003020160010160006101000a81548160ff0219169083151502179055503373ffffffffffffffffffffffffffffffffffffffff167ff684d89bb0f42287bf32838774e4b7f8a60c11804b3c6d1791fa55f30679264382604051610b3a9190611170565b60405180910390a250565b60606000808373ffffffffffffffffffffffffffffffffffffffff1673ffffffffffffffffffffffffffffffffffffffff168152602001908152602001600020805480602002602001604051908101604052809291908181526020016000905b82821015610c8e5783829060005260206000209060030201604051806060016040529081600082018054610bd8906112ee565b80601f0160208091040260200160405190810160405280929190818152602001828054610c04906112ee565b8015610c515780601f10610c2657610100808354040283529160200191610c51565b820191906000526020600020905b815481529060010190602001808311610c3457829003601f168201915b505050505081526020016001820160009054906101000a900460ff1615151515815260200160028201548152505081526020019060010190610ba5565b505050509050919050565b508054610ca5906112ee565b6000825580601f10610cb75750610cd6565b601f016020900490600052602060002090810190610cd59190610cfc565b5b50565b604051806060016040528060608152602001600015158152602001600081525090565b5b80821115610d15576000816000905550600101610cfd565b5090565b6000604051905090565b600080fd5b600080fd5b600080fd5b600080fd5b6000601f19601f8301169050919050565b7f4e487b7100000000000000000000000000000000000000000000000000000000600052604160045260246000fd5b610d8082610d37565b810181811067ffffffffffffffff82111715610d9f57610d9e610d48565b5b80604052505050565b6000610db2610d19565b9050610dbe8282610d77565b919050565b600067ffffffffffffffff821115610dde57610ddd610d48565b5b610de782610d37565b9050602081019050919050565b82818337600083830152505050565b6000610e16610e1184610dc3565b610da8565b905082815260208101848484011115610e3257610e31610d32565b5b610e3d848285610df4565b509392505050565b600082601f830112610e5a57610e59610d2d565b5b8135610e6a848260208601610e03565b91505092915050565b600060208284031215610e8957610e88610d23565b5b600082013567ffffffffffffffff811115610ea757610ea6610d28565b5b610eb384828501610e45565b91505092915050565b6000819050919050565b610ecf81610ebc565b8114610eda57600080fd5b50565b600081359050610eec81610ec6565b92915050565b600060208284031215610f0857610f07610d23565b5b6000610f1684828501610edd565b91505092915050565b600073ffffffffffffffffffffffffffffffffffffffff82169050919050565b6000610f4a82610f1f565b9050919050565b610f5a81610f3f565b8114610f6557600080fd5b50565b600081359050610f7781610f51565b92915050565b60008060408385031215610f9457610f93610d23565b5b6000610fa285828601610f68565b9250506020610fb385828601610edd565b9150509250929050565b600081519050919050565b600082825260208201905092915050565b60005b83811015610ff7578082015181840152602081019050610fdc565b60008484015250505050565b600061100e82610fbd565b6110188185610fc8565b9350611028818560208601610fd9565b61103181610d37565b840191505092915050565b60008115159050919050565b6110518161103c565b82525050565b61106081610ebc565b82525050565b600060608301600083015184820360008601526110838282611003565b91505060208301516110986020860182611048565b5060408301516110ab6040860182611057565b508091505092915050565b600060208201905081810360008301526110d08184611066565b905092915050565b600080604083850312156110ef576110ee610d23565b5b60006110fd85828601610edd565b925050602083013567ffffffffffffffff81111561111e5761111d610d28565b5b61112a85828601610e45565b9150509250929050565b60006020828403121561114a57611149610d23565b5b600061115884828501610f68565b91505092915050565b61116a81610ebc565b82525050565b60006020820190506111856000830184611161565b92915050565b600081519050919050565b600082825260208201905092915050565b6000819050602082019050919050565b600060608301600083015184820360008601526111d48282611003565b91505060208301516111e96020860182611048565b5060408301516111fc6040860182611057565b508091505092915050565b600061121383836111b7565b905092915050565b6000602082019050919050565b60006112338261118b565b61123d8185611196565b93508360208202850161124f856111a7565b8060005b8581101561128b578484038952815161126c8582611207565b94506112778361121b565b925060208a01995050600181019050611253565b50829750879550505050505092915050565b600060208201905081810360008301526112b78184611228565b905092915050565b7f4e487b7100000000000000000000000000000000000000000000000000000000600052602260045260246000fd5b6000600282049050600182168061130657607f821691505b602082108103611319576113186112bf565b5b50919050565b60008190508160005260206000209050919050565b60006020601f8301049050919050565b600082821b905092915050565b6000600883026113817fffffffffffffffffffffffffffffffffffffffffffffffffffffffffffffffff82611344565b61138b8683611344565b95508019841693508086168417925050509392505050565b6000819050919050565b60006113c86113c36113be84610ebc565b6113a3565b610ebc565b9050919050565b6000819050919050565b6113e2836113ad565b6113f66113ee826113cf565b848454611351565b825550505050565b600090565b61140b6113fe565b6114168184846113d9565b505050565b5b8181101561143a5761142f600082611403565b60018101905061141c565b5050565b601f82111561147f576114508161131f565b61145984611334565b81016020851015611468578190505b61147c61147485611334565b83018261141b565b50505b505050565b600082821c905092915050565b60006114a260001984600802611484565b1980831691505092915050565b60006114bb8383611491565b9150826002028217905092915050565b6114d482610fbd565b67ffffffffffffffff8111156114ed576114ec610d48565b5b6114f782546112ee565b61150282828561143e565b600060209050601f8311600181146115355760008415611523578287015190505b61152d85826114af565b865550611595565b601f1984166115438661131f565b60005b8281101561156b57848901518255600182019150602085019450602081019050611546565b868310156115885784890151611584601f891682611491565b8355505b6001600288020188555050505b505050505050565b7f4e487b7100000000000000000000000000000000000000000000000000000000600052601160045260246000fd5b60006115d782610ebc565b91506115e283610ebc565b92508282039050818111156115fa576115f961159d565b5b92915050565b600082825260208201905092915050565b600061161c82610fbd565b6116268185611600565b9350611636818560208601610fd9565b61163f81610d37565b840191505092915050565b600060408201905061165f6000830185611161565b81810360208301526116718184611611565b90509392505050565b7f5461736b20646f6573206e6f7420657869737400000000000000000000000000600082015250565b60006116b0601383611600565b91506116bb8261167a565b602082019050919050565b600060208201905081810360008301526116df816116a3565b9050919050565b7f4e487b7100000000000000000000000000000000000000000000000000000000600052603260045260246000fd5b600081549050611724816112ee565b9050919050565b818103611739575050611811565b61174282611715565b67ffffffffffffffff81111561175b5761175a610d48565b5b61176582546112ee565b61177082828561143e565b6000601f83116001811461179f576000841561178d578287015490505b61179785826114af565b86555061180a565b601f1984166117ad8761131f565b96506117b88661131f565b60005b828110156117e0578489015482556001820191506001850194506020810190506117bb565b868310156117fd57848901546117f9601f891682611491565b8355505b6001600288020188555050505b5050505050505b565b7f4e487b7100000000000000000000000000000000000000000000000000000000600052603160045260246000fd5b7f5461736b20616c726561647920636f6d706c6574656400000000000000000000600082015250565b6000611878601683611600565b915061188382611842565b602082019050919050565b600060208201905081810360008301526118a78161186b565b905091905056fea264697066735822122037a9c8ec87efc8a322d17020bc47abfd78ad408ec97ebcab30afe5588fec637264736f6c63430008130033",
  "linkReferences": {},
  "deployedLinkReferences": {}
}